:0200000038299D
:1000060083120313F801F9011030FC00710DF80D8D
:10001600F90D7408F8027508031C750FF902031828
:100026001B287408F80775080318750FF9070310DD
:0A003600F00DF10DFC0B0928080085
:1000400083120313BF0105303F0203182E283F0817
:100050003E07840020308000BF0A23283F083E0767
:1000600084008001BF033F083E07C0000A30F4004F
:10007000F5013C08F0003D08F10003207808F0008D
:100080007908F1003030F0074008840070088000E3
:100090000A30F400F5013C08F0003D08F1000320AF
:1000A0007008BC007108BD0000307106031D5A289D
:1000B00000307006031D5D285F28BF033328080049
:1000C00083160313981866280000602883123C08E2
:0400D000990008008B
:0E00D400073083120313FD00FD0B6E28080099
:0E00E2008312031327088A00260882000800F4
:1000F000831203139F01C0309F0483161F179F179D
:1001000083123308F000F00D7010F00D7010F00D38
:10011000701070089F041F146A201F151F1D92285D
:1001200000008E281F101E08F100F00183161E0823
:08013000F0040030F1040800A6
:1001380083120313B801B9013308BA003408BB00AD
:1001480080303406F00080307002031DAD28003086
:1001580033020318BB280130B8000030B900330857
:10016800003CBA003408031C013EBB01BB023A083C
:10017800BC003B08BD003508BE0020200630B60094
:100188000030B7003708003C031DCC283608003C77
:100198000318E72836083507F20001303602F00068
:1001A8000030031C013E3702F10070083507840057
:1001B8000008F00072088400700880000130B60260
:1001C800031CB703C628350884002030800038088F
:1001D800390403190529B601B70136083507840023
:1001E8000008203A031DFC28B60A0319B70AF128AB
:1001F8000130B602031CB7033608350784002D30DA
:04020800800008006A
:10020C0071208A110A128000840AA60A0319A70A0F
:08021C00F003031D0629080090
:1002240083120313B501330884000008B4003408B2
:10023400003A031927293408BC006020B50A3508A0
:0C024400330784000008B40019290800EA
:10025000831603139816903083129800831687171D
:10026000071383128C1E37291A08F0003129080061
:10027000583083120313A0003D30A100A201593071
:10028000A3003D30A400A5018316860183128601D8
:1002900019308316990018152821B30178207008A9
:1002A0008312A8007108A9000130B30078207008FB
:1002B0008312AA007108AB002808B3002908B40013
:1002C0002C30B5009C202030B30012212C30B3001C
:1002D00012210D30BC0060202A08B3002B08B400A6
:1002E0002C30B5009C202330B30012212C30B300F9
:1002F00012210D30BC0060200330FB000830FC00F0
:100300007730FD00FD0B8229FC0B8229FB0B822933
:100310008030013AF000803029067002031D9229D6
:100320002808903C0318A2298030013AF000803060
:100330002B067002031D9E292A08903C0318A2294F
:0A0340000614A32906104D29A42974
:02400E004A2F37
:00000001FF
