:10000000ABEF01F00000000000EF00F00000000086
:0A0010000000000000000000F3D71C
:10001C00086A096A100E0C6E013408360936045051
:10002C00085E0550D8A0053C095ED8B007D0045036
:10003C0008260550D8B0053C0926D8900036013664
:06004C000C2EEAD71200A1
:0A005200070E0D6E0D2EFED71200F2
:0E005C00ACB202D00000FCD75FC0ADFF1200B6
:10006A005F6A050E5F5C0BE25F5000016925E16E75
:10007A00000E6A21E26E200EE66E5F2AF2D75F500A
:10008A006925E16E000E6A21E26EE66A5F065F503C
:10009A0069256B6F000E6A216C6F0A0E046E000EE2
:1000AA00056E67C000F068C001F0B3DF08C000F059
:1000BA0009C001F0300E00266BC0E1FF6CC0E2FF00
:1000CA0000C0E6FF0A0E046E000E056E67C000F05F
:1000DA0068C001F09EDF00C067F001C068F0000E42
:1000EA00011802E1000E001801E102D05F06CFD725
:0200FA001200F2
:1000FC00C26A070EC012C08E5BC000F000360090C2
:10010C00003600900050C212C2809DDFC282C2A293
:10011C0001D0FDD7C4CF01F0006AC3500012000E0D
:06012C000112C290120056
:100132000001636B646B5BC065F05CC066F0800EAF
:100142005C18006E800E005C02E1000E5B5C0BE24C
:10015200010E636F000E646F5B500008656F5CC038
:1001620066F0000E665765C067F066C068F05DC055
:1001720069F05EC06AF078DF060E616F000E626F92
:10018200000E006E6251005C02E16151000819E24A
:1001920061515D24E16E62515E20E26E010E615D8D
:1001A200006E000E6259016E00505D24E96E01502E
:1001B2005E20EA6EEECFE6FF010E615F000E625B2B
:1001C200DFD75DC0E1FF5EC0E2FF200EE66E635145
:1001D20064111AE0616B626B61515D24E96E6251D8
:1001E2005E20EA6EEE50200A03E1614B622BF4D7E7
:1001F200010E615F000E625B61515D24E16E62512E
:0A0202005E20E26E2D0EE66E120083
:10020C0082928290030E0C6E550E0D6E0D2EFED743
:10021C000C2EFCD70F0E036E000E046E800E04180D
:10022C00006E800E005C02E1000E035C28E303C04C
:10023C0002F05BC000F05CC001F0025007E001323C
:10024C000032019E01BC018EFF0FF8D7010E001485
:10025C00006E00B002D0829201D082828290420E57
:10026C000D6E0D2EFED700008280420E0D6E0D2EEF
:10027C00FED70000010E035E000E045ACFD7030E0A
:10028C000C6E970E0D6E0D2EFED70C2EFCD70000AB
:08029C00000082828280120042
:0A02A400000E9EBA010E006E12005B
:1002AE005C0E3D6E000E3E6E5F0E3F6E000E406E9B
:1002BE00340E396E030E3A6E000E3B6E000E3C6E1F
:1002CE00A40E356E020E366E000E376E000E386EB0
:1002DE00FF0E416EFF0E426E000E436E000E446E18
:1002EE00AC8A900EAB6E948E949C9EAA03D0AECF29
:0602FE0000F0FBD7120026
:100304005E6A5BC0E9FF5CC0EAFFEECF5DF05D5062
:10031400000A0DE05DC05FF09FDE5E2A5E505B2444
:10032400E96E000E5C20EA6EEECF5DF0F0D71200AD
:10033400AECF01F0ABA202D0AB98AB8801C000F005
:020344001200A5
:100346000900F5CFE6FF0006FBE10106F9E1120020
:1003560003EC04F0190EAF6EAC84A6DF800E946E2B
:1003660082828280210E5B6E000E5C6EC8DF97DF94
:1003760000522BE0DCDF00C045F00050310A05E1F9
:10038600010E5B6E000E5C6E3EDF4550320A05E1E3
:10039600020E5B6E000E5C6E36DF4550330A05E1D9
:1003A600030E5B6E000E5C6E2EDF4550340A05E1CF
:1003B600040E5B6E000E5C6E26DF4550350A05E1C5
:1003C600050E5B6E000E5C6E1EDF0C0E5B6E93DE22
:1003D60000C04AF001C04BF00A0E5B6E8CDE00C016
:1003E6004CF001C04DF0080E5B6E85DE00C04EF08D
:1003F60001C04FF0090E5B6E7EDE00C050F001C0FA
:1004060051F00B0E5B6E77DE00C052F001C053F068
:100416005B6A71DE00C046F001C047F0010E5B6EFC
:100426006ADE00C048F001C049F04AC05BF04BC02C
:100436005CF0540E5D6E000E5E6E78DE270E5B6E0F
:10044600000E5C6E5CDF540E5B6E000E5C6E57DF5A
:100456000D0E5F6E00DE4CC05BF04DC05CF0540EBE
:100466005D6E000E5E6E62DE150E5B6E000E5C6EDD
:1004760046DF540E5B6E000E5C6E41DF0D0E5F6E46
:10048600EADD4EC05BF04FC05CF0540E5D6E000EB0
:100496005E6E4CDE190E5B6E000E5C6E30DF540E27
:1004A6005B6E000E5C6E2BDF0D0E5F6ED4DD50C0F2
:1004B6005BF051C05CF0540E5D6E000E5E6E36DE73
:1004C6001D0E5B6E000E5C6E1ADF540E5B6E000E28
:1004D6005C6E15DF0D0E5F6EBEDD52C05BF053C065
:1004E6005CF0540E5D6E000E5E6E20DE2B0E5B6EB3
:1004F600000E5C6E04DF540E5B6E000E5C6EFFDE5B
:100506000D0E5F6EA8DD46C05BF047C05CF0540E72
:100516005D6E000E5E6E0ADE2F0E5B6E000E5C6E6A
:10052600EEDE540E5B6E000E5C6EE9DE0D0E5F6E47
:1005360092DD48C05BF049C05CF0540E5D6E000E63
:100546005E6EF4DD320E5B6E000E5C6ED8DE540E0F
:100556005B6E000E5C6ED3DE0D0E5F6E7CDD060EEE
:100566000B6E130E0C6EAD0E0D6E0D2EFED70C2EF1
:10057600FCD70B2EFAD700000000800E4B18006E39
:10058600800E005C02E1AA0E4A5C2EE2800E4D1837
:10059600006E800E005C02E1B40E4C5C25E2800E1B
:1005A6004F18006E800E005C02E1B40E4E5C1CE239
:1005B600800E006E800E5118005C02E15050FA0861
:1005C60013E2020E5B6E000E5C6E1DDE1A0E0B6EE3
:1005D6005E0E0C6E6E0E0D6E0D2EFED70C2EFCD71B
:1005E6000B2EFAD70000FAD0800E4B18006E800E44
:1005F600005C02E1AA0E4A5C31E2800E4D18006EE4
:10060600800E005C02E1B40E4C5C28E2800E4F18AE
:10061600006E800E005C02E1B40E4E5C1FE2800E9E
:100626005118006E800E005C02E1AA0E505C16E2C4
:100636004550630A13E0010E5B6E000E5C6EE3DD4F
:100646001A0E0B6E5E0E0C6E6E0E0D6E0D2EFED716
:100656000C2EFCD70B2EFAD70000C0D0800E006EF1
:10066600800E4B18005C02E14A50E60838E2800E24
:10067600006E800E4D18005C02E14C50E6082FE239
:10068600800E006E800E4F18005C02E14E50E608A8
:1006960026E2800E006E800E5118005C02E150507A
:1006A600E6081DE2800E4718006E800E010A005C07
:1006B60002E1180E465C13E2030E5B6E000E5C6EE2
:1006C600A2DD1A0E0B6E5E0E0C6E6E0E0D6E0D2EEC
:1006D600FED70C2EFCD70B2EFAD700007FD0800E4B
:1006E6004B18006E800E005C02E1AA0E4A5C32E2F4
:1006F600800E4D18006E800E005C02E1B40E4C5C5C
:1007060029E2800E4F18006E800E005C02E1B40EE6
:100716004E5C20E2800E5118006E800E005C02E1F5
:10072600AA0E505C17E24550630A14E1040E5B6E94
:10073600000E5C6E68DD456A1A0E0B6E5E0E0C6E60
:100746006E0E0D6E0D2EFED70C2EFCD70B2EFAD785
:10075600000044D0800E006E800E4B18005C02E153
:100766004A50E6083BE2800E006E800E4D18005C93
:1007760002E14C50E60832E2800E006E800E4F1801
:10078600005C02E14E50E60829E2800E006E800E03
:100796005118005C02E15050E60820E2800E010A82
:1007A600006E800E4718005C02E146505E0816E2B5
:1007B6004550620A13E1050E5B6E000E5C6E23DD8A
:1007C600456A1A0E0B6E5E0E0C6E6E0E0D6E0D2EBB
:1007D600FED70C2EFCD70B2EFAD70000C8D5FFD7B4
:1008060010EE15F0200E006E010E016EE60EF66E6D
:0E081600070EF76E000EF86EA3EC01F0120054
:0407E60066313D003B
:0407EA0066323D0036
:0407EE0066333D0031
:0607F20068656C6C6F00ED
:0407F80066303D002A
:0407FC0066343D0022
:03080000783D0040
:03080300793D003C
:020000040030CA
:0E00000000001F1EFF8381FF0FC00FE00F40A6
:00000001FF
