:1000000068EF00F00000000000EF00F000000000CA
:0A0010000000000000000000F3D71C
:0A001C00070E0D6E0D2EFED7120028
:0E002600ACB202D00000FCD731C0ADFF12001A
:100034000900F5CFE6FF0006FBE10106F9E1120035
:10004400260E1D6E000E1E6E310E1F6E000E206EEB
:10005400FF0E216EFF0E226E000E236E000E246E24
:10006400FF0E156EFF0E166E000E176E000E186E44
:10007400FF0E196EFF0E1A6E000E1B6E000E1C6E24
:10008400AC8A900EAB6E948E949C9EAA03D0AECF95
:0600940000F0FBD7120092
:10009A00C26A070EC012C08E31C000F0003600904E
:1000AA00003600900050C212C280B3DFC282C2A2E0
:1000BA0001D0FDD7C4CF01F0006AC3500012000E70
:0600CA000112C2901200B9
:1000D000190EAF6EAC84B6DF800E946E0C0E316ECE
:1000E000DCDF00C027F001C028F00A0E316ED5DF3A
:1000F00000C029F001C02AF0080E316ECEDF00C02A
:100100002BF001C02CF0090E316EC7DF00C02DF0BE
:1001100001C02EF00B0E316EC0DF00C02FF001C009
:1001200030F0316ABADF010E316EB7DF00C025F062
:1001300001C026F0800E2A18006E800E005C02E1DD
:10014000B40E295C1AE2800E2C18006E800E005C42
:1001500002E1B40E2B5C11E2630E316E64DF1A0E05
:100160000B6E5E0E0C6E6E0E0D6E0D2EFED70C2EEF
:10017000FCD70B2EFAD700002CD0800E006E800E1C
:100180002A18005C02E12950C80823E2800E006EA4
:10019000800E2C18005C02E12B50C8081AE2800E79
:1001A000010A006E800E2618005C02E125507208DC
:1001B00010E2620E316E37DF1A0E0B6E5E0E0C6EA1
:1001C0006E0E0D6E0D2EFED70C2EFCD70B2EFAD711
:0601D000000084D7FFD7F8
:020000040030CA
:0E00000000001F1EFF8381FF0FC00FE00F40A6
:00000001FF
